{"bytecode":"60806040523480156200001157600080fd5b50604051620013dc380380620013dc833981016040819052620000349162000202565b6200003f336200006e565b600880546001600160a01b0319166001600160a01b038416179055620000668282620000be565b50506200023a565b600080546001600160a01b038381166001600160a01b0319831681178455604051919092169283917f8be0079c531659141344cd1fd0a4f28419497f9722a3daafe3b4186f6b6457e09190a35050565b620000c862000112565b620000e38260016200017360201b620009fa1790919060201c565b506001600160a01b03918216600090815260036020526040902080546001600160a01b03191691909216179055565b6000546001600160a01b03163314620001715760405162461bcd60e51b815260206004820181905260248201527f4f776e61626c653a2063616c6c6572206973206e6f7420746865206f776e6572604482015260640160405180910390fd5b565b60006200018a836001600160a01b03841662000193565b90505b92915050565b6000818152600183016020526040812054620001dc575081546001818101845560008481526020808220909301849055845484825282860190935260409020919091556200018d565b5060006200018d565b80516001600160a01b0381168114620001fd57600080fd5b919050565b600080604083850312156200021657600080fd5b6200022183620001e5565b91506200023160208401620001e5565b90509250929050565b611192806200024a6000396000f3fe608060405234801561001057600080fd5b50600436106100f55760003560e01c8063cbf9de4d11610097578063ef037b9011610066578063ef037b90146101d2578063f2888dbb146101f5578063f2fde38b14610208578063f9eaee0d1461021b57600080fd5b8063cbf9de4d14610186578063e417442f14610199578063ec395a0c146101ac578063ec68b76e146101bf57600080fd5b80637d00061c116100d35780637d00061c1461011f5780638b34083e146101455780638da5cb5b14610158578063adc9772e1461017357600080fd5b8063228cb733146100fa578063305e94cd14610104578063715018a614610117575b600080fd5b61010261022e565b005b610102610112366004610e26565b61026d565b6101026102af565b61013261012d366004610e26565b6102c3565b6040519081526020015b60405180910390f35b610132610153366004610e59565b610303565b6000546040516001600160a01b03909116815260200161013c565b610102610181366004610e74565b6103b6565b610132610194366004610e26565b61055c565b6101026101a7366004610e59565b6105d9565b6101326101ba366004610e59565b610685565b6101326101cd366004610e59565b6106fe565b6101e56101e0366004610e59565b61080e565b604051901515815260200161013c565b610102610203366004610e59565b61081b565b610102610216366004610e59565b610977565b6101e5610229366004610e59565b6109ed565b610236610a0f565b60005b6102436006610a69565b81101561026a576102586101a7600683610a73565b8061026281610eb4565b915050610239565b50565b610275610a0f565b6102806001836109fa565b506001600160a01b03918216600090815260036020526040902080546001600160a01b03191691909216179055565b6102b7610a0f565b6102c16000610a7f565b565b6000806102d0848461055c565b9050670de0b6b3a7640000816102e5856106fe565b6102ef9190610ecd565b6102f99190610eec565b9150505b92915050565b600061030e8261080e565b6103335760405162461bcd60e51b815260040161032a90610f0e565b60405180910390fd5b600080805b6001600160a01b038516600090815260056020526040902061035990610acf565b8110156103ad576001600160a01b03851660009081526005602052604090206103829082610ada565b50915061038f85836102c3565b6103999084610f3c565b9250806103a581610eb4565b915050610338565b50909392505050565b600081116104065760405162461bcd60e51b815260206004820152601e60248201527f416d6f756e74206d7573742062652067726561746572207468616e20302e0000604482015260640161032a565b61040f826109ed565b6104535760405162461bcd60e51b81526020600482015260156024820152742a37b5b2b71034b9903737ba1030b63637bbb2b21760591b604482015260640161032a565b6040516323b872dd60e01b8152336004820152306024820152604481018290526001600160a01b038316906323b872dd906064016020604051808303816000875af11580156104a6573d6000803e3d6000fd5b505050506040513d601f19601f820116820180604052508101906104ca9190610f54565b506001600160a01b0382166000908152600460209081526040808320338452909152812080548392906104fe908490610f3c565b909155506000905061050f3361080e565b61051a576000610524565b610524338461055c565b905061054a836105348484610f3c565b3360009081526005602052604090209190610af6565b506105566006336109fa565b50505050565b60006105678361080e565b6105835760405162461bcd60e51b815260040161032a90610f0e565b6001600160a01b03831660009081526005602052604090206105a59083610b0c565b6105b05760006105d2565b6001600160a01b03831660009081526005602052604090206105d29083610b21565b9392505050565b6105e1610a0f565b6008546001600160a01b03166323b872dd3383600a6105ff82610303565b6106099190610eec565b6040516001600160e01b031960e086901b1681526001600160a01b03938416600482015292909116602483015260448201526064016020604051808303816000875af115801561065d573d6000803e3d6000fd5b505050506040513d601f19601f820116820180604052508101906106819190610f54565b5050565b600080805b6106946006610a69565b8110156106f7576001600160a01b0384166000908152600460205260408120906106bf600684610a73565b6001600160a01b031681526020810191909152604001600020546106e39083610f3c565b9150806106ef81610eb4565b91505061068a565b5092915050565b6001600160a01b03808216600090815260036020526040808220548151633fabe5a360e21b81529151929316918391839163feaf968c9160048082019260a0929091908290030181865afa15801561075a573d6000803e3d6000fd5b505050506040513d601f19601f8201168201806040525081019061077e9190610f90565b505050915050816001600160a01b031663313ce5676040518163ffffffff1660e01b8152600401602060405180830381865afa1580156107c2573d6000803e3d6000fd5b505050506040513d601f19601f820116820180604052508101906107e69190610fe0565b6107f1906012611003565b6107fc90600a61110a565b6108069082610ecd565b949350505050565b60006102fd600683610b36565b6108243361080e565b6108405760405162461bcd60e51b815260040161032a90610f0e565b600061084c338361055c565b90506000811161089e5760405162461bcd60e51b815260206004820152601f60248201527f42616c616e6365206d7573742062652067726561746572207468616e20302e00604482015260640161032a565b60405163a9059cbb60e01b8152336004820152602481018290526001600160a01b0383169063a9059cbb906044016020604051808303816000875af11580156108eb573d6000803e3d6000fd5b505050506040513d601f19601f8201168201806040525081019061090f9190610f54565b506001600160a01b03821660009081526004602090815260408083203384528252808320839055600590915290206109479083610b58565b5033600090815260056020526040902061096090610acf565b60000361068157610972600633610b6d565b505050565b61097f610a0f565b6001600160a01b0381166109e45760405162461bcd60e51b815260206004820152602660248201527f4f776e61626c653a206e6577206f776e657220697320746865207a65726f206160448201526564647265737360d01b606482015260840161032a565b61026a81610a7f565b60006102fd600183610b36565b60006105d2836001600160a01b038416610b82565b6000546001600160a01b031633146102c15760405162461bcd60e51b815260206004820181905260248201527f4f776e61626c653a2063616c6c6572206973206e6f7420746865206f776e6572604482015260640161032a565b60006102fd825490565b60006105d28383610bd1565b600080546001600160a01b038381166001600160a01b0319831681178455604051919092169283917f8be0079c531659141344cd1fd0a4f28419497f9722a3daafe3b4186f6b6457e09190a35050565b60006102fd82610bfb565b6000808080610ae98686610c06565b9097909650945050505050565b6000610806846001600160a01b03851684610c31565b60006105d2836001600160a01b038416610c4e565b60006105d2836001600160a01b038416610c5a565b6001600160a01b038116600090815260018301602052604081205415156105d2565b60006105d2836001600160a01b038416610cca565b60006105d2836001600160a01b038416610ce7565b6000818152600183016020526040812054610bc9575081546001818101845560008481526020808220909301849055845484825282860190935260409020919091556102fd565b5060006102fd565b6000826000018281548110610be857610be8611119565b9060005260206000200154905092915050565b60006102fd82610a69565b60008080610c148585610a73565b600081815260029690960160205260409095205494959350505050565b600082815260028401602052604081208290556108068484610dda565b60006105d28383610de6565b600081815260028301602052604081205480151580610c7e5750610c7e8484610c4e565b6105d25760405162461bcd60e51b815260206004820152601e60248201527f456e756d657261626c654d61703a206e6f6e6578697374656e74206b65790000604482015260640161032a565b600081815260028301602052604081208190556105d28383610dfe565b60008181526001830160205260408120548015610dd0576000610d0b60018361112f565b8554909150600090610d1f9060019061112f565b9050818114610d84576000866000018281548110610d3f57610d3f611119565b9060005260206000200154905080876000018481548110610d6257610d62611119565b6000918252602080832090910192909255918252600188019052604090208390555b8554869080610d9557610d95611146565b6001900381819060005260206000200160009055905585600101600086815260200190815260200160002060009055600193505050506102fd565b60009150506102fd565b60006105d28383610b82565b600081815260018301602052604081205415156105d2565b60006105d28383610ce7565b80356001600160a01b0381168114610e2157600080fd5b919050565b60008060408385031215610e3957600080fd5b610e4283610e0a565b9150610e5060208401610e0a565b90509250929050565b600060208284031215610e6b57600080fd5b6105d282610e0a565b60008060408385031215610e8757600080fd5b610e9083610e0a565b946020939093013593505050565b634e487b7160e01b600052601160045260246000fd5b600060018201610ec657610ec6610e9e565b5060010190565b6000816000190483118215151615610ee757610ee7610e9e565b500290565b600082610f0957634e487b7160e01b600052601260045260246000fd5b500490565b6020808252601490820152732ab735b737bbb71039ba30b5b2b437b63232b91760611b604082015260600190565b60008219821115610f4f57610f4f610e9e565b500190565b600060208284031215610f6657600080fd5b815180151581146105d257600080fd5b805169ffffffffffffffffffff81168114610e2157600080fd5b600080600080600060a08688031215610fa857600080fd5b610fb186610f76565b9450602086015193506040860151925060608601519150610fd460808701610f76565b90509295509295909350565b600060208284031215610ff257600080fd5b815160ff811681146105d257600080fd5b600060ff821660ff84168082101561101d5761101d610e9e565b90039392505050565b600181815b8085111561106157816000190482111561104757611047610e9e565b8085161561105457918102915b93841c939080029061102b565b509250929050565b600082611078575060016102fd565b81611085575060006102fd565b816001811461109b57600281146110a5576110c1565b60019150506102fd565b60ff8411156110b6576110b6610e9e565b50506001821b6102fd565b5060208310610133831016604e8410600b84101617156110e4575081810a6102fd565b6110ee8383611026565b806000190482111561110257611102610e9e565b029392505050565b60006105d260ff841683611069565b634e487b7160e01b600052603260045260246000fd5b60008282101561114157611141610e9e565b500390565b634e487b7160e01b600052603160045260246000fdfea264697066735822122030fec15c4eeadcca0245b0668fe67a0a9af6a31634d7f16209c49a4c2ed9240364736f6c634300080f0033","bytecodeSha1":"0b36f3f1b9b7be6fad489ac19c034c917798e2e0","type":"contract","abi":[{"inputs":[{"internalType":"address","name":"_dappTokenAddress","type":"address"},{"internalType":"address","name":"_dappTokenPriceFeed","type":"address"}],"stateMutability":"nonpayable","type":"constructor","name":"constructor"},{"anonymous":false,"inputs":[{"indexed":true,"internalType":"address","name":"previousOwner","type":"address"},{"indexed":true,"internalType":"address","name":"newOwner","type":"address"}],"name":"OwnershipTransferred","type":"event"},{"inputs":[{"internalType":"address","name":"_token","type":"address"},{"internalType":"address","name":"_priceFeed","type":"address"}],"name":"addAllowedToken","outputs":[],"stateMutability":"nonpayable","type":"function"},{"inputs":[{"internalType":"address","name":"_holder","type":"address"},{"internalType":"address","name":"_token","type":"address"}],"name":"getStakeholderTokenBalance","outputs":[{"internalType":"uint256","name":"","type":"uint256"}],"stateMutability":"view","type":"function"},{"inputs":[{"internalType":"address","name":"_stakeholder","type":"address"},{"internalType":"address","name":"_token","type":"address"}],"name":"getStakeholderTokenValue","outputs":[{"internalType":"uint256","name":"","type":"uint256"}],"stateMutability":"view","type":"function"},{"inputs":[{"internalType":"address","name":"_holder","type":"address"}],"name":"getStakeholderTotalValue","outputs":[{"internalType":"uint256","name":"","type":"uint256"}],"stateMutability":"view","type":"function"},{"inputs":[{"internalType":"address","name":"_token","type":"address"}],"name":"getTokenUnitValue","outputs":[{"internalType":"uint256","name":"","type":"uint256"}],"stateMutability":"view","type":"function"},{"inputs":[{"internalType":"address","name":"_token","type":"address"}],"name":"getTotalStakedToken","outputs":[{"internalType":"uint256","name":"","type":"uint256"}],"stateMutability":"view","type":"function"},{"inputs":[{"internalType":"address","name":"_user","type":"address"}],"name":"isStakeholder","outputs":[{"internalType":"bool","name":"","type":"bool"}],"stateMutability":"view","type":"function"},{"inputs":[{"internalType":"address","name":"_token","type":"address"}],"name":"isTokenAllowed","outputs":[{"internalType":"bool","name":"","type":"bool"}],"stateMutability":"view","type":"function"},{"inputs":[],"name":"owner","outputs":[{"internalType":"address","name":"","type":"address"}],"stateMutability":"view","type":"function"},{"inputs":[],"name":"renounceOwnership","outputs":[],"stateMutability":"nonpayable","type":"function"},{"inputs":[],"name":"reward","outputs":[],"stateMutability":"nonpayable","type":"function"},{"inputs":[{"internalType":"address","name":"_stakeholder","type":"address"}],"name":"rewardStakeholder","outputs":[],"stateMutability":"nonpayable","type":"function"},{"inputs":[{"internalType":"address","name":"_token","type":"address"},{"internalType":"uint256","name":"_amount","type":"uint256"}],"name":"stake","outputs":[],"stateMutability":"nonpayable","type":"function"},{"inputs":[{"internalType":"address","name":"newOwner","type":"address"}],"name":"transferOwnership","outputs":[],"stateMutability":"nonpayable","type":"function"},{"inputs":[{"internalType":"address","name":"_token","type":"address"}],"name":"unstake","outputs":[],"stateMutability":"nonpayable","type":"function"}],"compiler":{"version":"0.8.15+commit.e14f2714","evm_version":"istanbul","optimizer":{"enabled":true,"runs":200}},"contractName":"TokenFarm","language":"Solidity","natspec":{"methods":{"owner()":{"details":"Returns the address of the current owner."},"renounceOwnership()":{"details":"Leaves the contract without owner. It will not be possible to call `onlyOwner` functions anymore. Can only be called by the current owner. NOTE: Renouncing ownership will leave the contract without an owner, thereby removing any functionality that is only available to the owner."},"transferOwnership(address)":{"details":"Transfers ownership of the contract to a new account (`newOwner`). Can only be called by the current owner."}},"kind":"dev","version":1},"opcodes":"PUSH1 0x80 PUSH1 0x40 MSTORE CALLVALUE DUP1 ISZERO PUSH2 0x10 JUMPI PUSH1 0x0 DUP1 REVERT JUMPDEST POP PUSH1 0x4 CALLDATASIZE LT PUSH2 0xF5 JUMPI PUSH1 0x0 CALLDATALOAD PUSH1 0xE0 SHR DUP1 PUSH4 0xCBF9DE4D GT PUSH2 0x97 JUMPI DUP1 PUSH4 0xEF037B90 GT PUSH2 0x66 JUMPI DUP1 PUSH4 0xEF037B90 EQ PUSH2 0x1D2 JUMPI DUP1 PUSH4 0xF2888DBB EQ PUSH2 0x1F5 JUMPI DUP1 PUSH4 0xF2FDE38B EQ PUSH2 0x208 JUMPI DUP1 PUSH4 0xF9EAEE0D EQ PUSH2 0x21B JUMPI PUSH1 0x0 DUP1 REVERT JUMPDEST DUP1 PUSH4 0xCBF9DE4D EQ PUSH2 0x186 JUMPI DUP1 PUSH4 0xE417442F EQ PUSH2 0x199 JUMPI DUP1 PUSH4 0xEC395A0C EQ PUSH2 0x1AC JUMPI DUP1 PUSH4 0xEC68B76E EQ PUSH2 0x1BF JUMPI PUSH1 0x0 DUP1 REVERT JUMPDEST DUP1 PUSH4 0x7D00061C GT PUSH2 0xD3 JUMPI DUP1 PUSH4 0x7D00061C EQ PUSH2 0x11F JUMPI DUP1 PUSH4 0x8B34083E EQ PUSH2 0x145 JUMPI DUP1 PUSH4 0x8DA5CB5B EQ PUSH2 0x158 JUMPI DUP1 PUSH4 0xADC9772E EQ PUSH2 0x173 JUMPI PUSH1 0x0 DUP1 REVERT JUMPDEST DUP1 PUSH4 0x228CB733 EQ PUSH2 0xFA JUMPI DUP1 PUSH4 0x305E94CD EQ PUSH2 0x104 JUMPI DUP1 PUSH4 0x715018A6 EQ PUSH2 0x117 JUMPI JUMPDEST PUSH1 0x0 DUP1 REVERT JUMPDEST PUSH2 0x102 PUSH2 0x22E JUMP JUMPDEST STOP JUMPDEST PUSH2 0x102 PUSH2 0x112 CALLDATASIZE PUSH1 0x4 PUSH2 0xE26 JUMP JUMPDEST PUSH2 0x26D JUMP JUMPDEST PUSH2 0x102 PUSH2 0x2AF JUMP JUMPDEST PUSH2 0x132 PUSH2 0x12D CALLDATASIZE PUSH1 0x4 PUSH2 0xE26 JUMP JUMPDEST PUSH2 0x2C3 JUMP JUMPDEST PUSH1 0x40 MLOAD SWAP1 DUP2 MSTORE PUSH1 0x20 ADD JUMPDEST PUSH1 0x40 MLOAD DUP1 SWAP2 SUB SWAP1 RETURN JUMPDEST PUSH2 0x132 PUSH2 0x153 CALLDATASIZE PUSH1 0x4 PUSH2 0xE59 JUMP JUMPDEST PUSH2 0x303 JUMP JUMPDEST PUSH1 0x0 SLOAD PUSH1 0x40 MLOAD PUSH1 0x1 PUSH1 0x1 PUSH1 0xA0 SHL SUB SWAP1 SWAP2 AND DUP2 MSTORE PUSH1 0x20 ADD PUSH2 0x13C JUMP JUMPDEST PUSH2 0x102 PUSH2 0x181 CALLDATASIZE PUSH1 0x4 PUSH2 0xE74 JUMP JUMPDEST PUSH2 0x3B6 JUMP JUMPDEST PUSH2 0x132 PUSH2 0x194 CALLDATASIZE PUSH1 0x4 PUSH2 0xE26 JUMP JUMPDEST PUSH2 0x55C JUMP JUMPDEST PUSH2 0x102 PUSH2 0x1A7 CALLDATASIZE PUSH1 0x4 PUSH2 0xE59 JUMP JUMPDEST PUSH2 0x5D9 JUMP JUMPDEST PUSH2 0x132 PUSH2 0x1BA CALLDATASIZE PUSH1 0x4 PUSH2 0xE59 JUMP JUMPDEST PUSH2 0x685 JUMP JUMPDEST PUSH2 0x132 PUSH2 0x1CD CALLDATASIZE PUSH1 0x4 PUSH2 0xE59 JUMP JUMPDEST PUSH2 0x6FE JUMP JUMPDEST PUSH2 0x1E5 PUSH2 0x1E0 CALLDATASIZE PUSH1 0x4 PUSH2 0xE59 JUMP JUMPDEST PUSH2 0x80E JUMP JUMPDEST PUSH1 0x40 MLOAD SWAP1 ISZERO ISZERO DUP2 MSTORE PUSH1 0x20 ADD PUSH2 0x13C JUMP JUMPDEST PUSH2 0x102 PUSH2 0x203 CALLDATASIZE PUSH1 0x4 PUSH2 0xE59 JUMP JUMPDEST PUSH2 0x81B JUMP JUMPDEST PUSH2 0x102 PUSH2 0x216 CALLDATASIZE PUSH1 0x4 PUSH2 0xE59 JUMP JUMPDEST PUSH2 0x977 JUMP JUMPDEST PUSH2 0x1E5 PUSH2 0x229 CALLDATASIZE PUSH1 0x4 PUSH2 0xE59 JUMP JUMPDEST PUSH2 0x9ED JUMP JUMPDEST PUSH2 0x236 PUSH2 0xA0F JUMP JUMPDEST PUSH1 0x0 JUMPDEST PUSH2 0x243 PUSH1 0x6 PUSH2 0xA69 JUMP JUMPDEST DUP2 LT ISZERO PUSH2 0x26A JUMPI PUSH2 0x258 PUSH2 0x1A7 PUSH1 0x6 DUP4 PUSH2 0xA73 JUMP JUMPDEST DUP1 PUSH2 0x262 DUP2 PUSH2 0xEB4 JUMP JUMPDEST SWAP2 POP POP PUSH2 0x239 JUMP JUMPDEST POP JUMP JUMPDEST PUSH2 0x275 PUSH2 0xA0F JUMP JUMPDEST PUSH2 0x280 PUSH1 0x1 DUP4 PUSH2 0x9FA JUMP JUMPDEST POP PUSH1 0x1 PUSH1 0x1 PUSH1 0xA0 SHL SUB SWAP2 DUP3 AND PUSH1 0x0 SWAP1 DUP2 MSTORE PUSH1 0x3 PUSH1 0x20 MSTORE PUSH1 0x40 SWAP1 KECCAK256 DUP1 SLOAD PUSH1 0x1 PUSH1 0x1 PUSH1 0xA0 SHL SUB NOT AND SWAP2 SWAP1 SWAP3 AND OR SWAP1 SSTORE JUMP JUMPDEST PUSH2 0x2B7 PUSH2 0xA0F JUMP JUMPDEST PUSH2 0x2C1 PUSH1 0x0 PUSH2 0xA7F JUMP JUMPDEST JUMP JUMPDEST PUSH1 0x0 DUP1 PUSH2 0x2D0 DUP5 DUP5 PUSH2 0x55C JUMP JUMPDEST SWAP1 POP PUSH8 0xDE0B6B3A7640000 DUP2 PUSH2 0x2E5 DUP6 PUSH2 0x6FE JUMP JUMPDEST PUSH2 0x2EF SWAP2 SWAP1 PUSH2 0xECD JUMP JUMPDEST PUSH2 0x2F9 SWAP2 SWAP1 PUSH2 0xEEC JUMP JUMPDEST SWAP2 POP POP JUMPDEST SWAP3 SWAP2 POP POP JUMP JUMPDEST PUSH1 0x0 PUSH2 0x30E DUP3 PUSH2 0x80E JUMP JUMPDEST PUSH2 0x333 JUMPI PUSH1 0x40 MLOAD PUSH3 0x461BCD PUSH1 0xE5 SHL DUP2 MSTORE PUSH1 0x4 ADD PUSH2 0x32A SWAP1 PUSH2 0xF0E JUMP JUMPDEST PUSH1 0x40 MLOAD DUP1 SWAP2 SUB SWAP1 REVERT JUMPDEST PUSH1 0x0 DUP1 DUP1 JUMPDEST PUSH1 0x1 PUSH1 0x1 PUSH1 0xA0 SHL SUB DUP6 AND PUSH1 0x0 SWAP1 DUP2 MSTORE PUSH1 0x5 PUSH1 0x20 MSTORE PUSH1 0x40 SWAP1 KECCAK256 PUSH2 0x359 SWAP1 PUSH2 0xACF JUMP JUMPDEST DUP2 LT ISZERO PUSH2 0x3AD JUMPI PUSH1 0x1 PUSH1 0x1 PUSH1 0xA0 SHL SUB DUP6 AND PUSH1 0x0 SWAP1 DUP2 MSTORE PUSH1 0x5 PUSH1 0x20 MSTORE PUSH1 0x40 SWAP1 KECCAK256 PUSH2 0x382 SWAP1 DUP3 PUSH2 0xADA JUMP JUMPDEST POP SWAP2 POP PUSH2 0x38F DUP6 DUP4 PUSH2 0x2C3 JUMP JUMPDEST PUSH2 0x399 SWAP1 DUP5 PUSH2 0xF3C JUMP JUMPDEST SWAP3 POP DUP1 PUSH2 0x3A5 DUP2 PUSH2 0xEB4 JUMP JUMPDEST SWAP2 POP POP PUSH2 0x338 JUMP JUMPDEST POP SWAP1 SWAP4 SWAP3 POP POP POP JUMP JUMPDEST PUSH1 0x0 DUP2 GT PUSH2 0x406 JUMPI PUSH1 0x40 MLOAD PUSH3 0x461BCD PUSH1 0xE5 SHL DUP2 MSTORE PUSH1 0x20 PUSH1 0x4 DUP3 ADD MSTORE PUSH1 0x1E PUSH1 0x24 DUP3 ADD MSTORE PUSH32 0x416D6F756E74206D7573742062652067726561746572207468616E20302E0000 PUSH1 0x44 DUP3 ADD MSTORE PUSH1 0x64 ADD PUSH2 0x32A JUMP JUMPDEST PUSH2 0x40F DUP3 PUSH2 0x9ED JUMP JUMPDEST PUSH2 0x453 JUMPI PUSH1 0x40 MLOAD PUSH3 0x461BCD PUSH1 0xE5 SHL DUP2 MSTORE PUSH1 0x20 PUSH1 0x4 DUP3 ADD MSTORE PUSH1 0x15 PUSH1 0x24 DUP3 ADD MSTORE PUSH21 0x2A37B5B2B71034B9903737BA1030B63637BBB2B217 PUSH1 0x59 SHL PUSH1 0x44 DUP3 ADD MSTORE PUSH1 0x64 ADD PUSH2 0x32A JUMP JUMPDEST PUSH1 0x40 MLOAD PUSH4 0x23B872DD PUSH1 0xE0 SHL DUP2 MSTORE CALLER PUSH1 0x4 DUP3 ADD MSTORE ADDRESS PUSH1 0x24 DUP3 ADD MSTORE PUSH1 0x44 DUP2 ADD DUP3 SWAP1 MSTORE PUSH1 0x1 PUSH1 0x1 PUSH1 0xA0 SHL SUB DUP4 AND SWAP1 PUSH4 0x23B872DD SWAP1 PUSH1 0x64 ADD PUSH1 0x20 PUSH1 0x40 MLOAD DUP1 DUP4 SUB DUP2 PUSH1 0x0 DUP8 GAS CALL ISZERO DUP1 ISZERO PUSH2 0x4A6 JUMPI RETURNDATASIZE PUSH1 0x0 DUP1 RETURNDATACOPY RETURNDATASIZE PUSH1 0x0 REVERT JUMPDEST POP POP POP POP PUSH1 0x40 MLOAD RETURNDATASIZE PUSH1 0x1F NOT PUSH1 0x1F DUP3 ADD AND DUP3 ADD DUP1 PUSH1 0x40 MSTORE POP DUP2 ADD SWAP1 PUSH2 0x4CA SWAP2 SWAP1 PUSH2 0xF54 JUMP JUMPDEST POP PUSH1 0x1 PUSH1 0x1 PUSH1 0xA0 SHL SUB DUP3 AND PUSH1 0x0 SWAP1 DUP2 MSTORE PUSH1 0x4 PUSH1 0x20 SWAP1 DUP2 MSTORE PUSH1 0x40 DUP1 DUP4 KECCAK256 CALLER DUP5 MSTORE SWAP1 SWAP2 MSTORE DUP2 KECCAK256 DUP1 SLOAD DUP4 SWAP3 SWAP1 PUSH2 0x4FE SWAP1 DUP5 SWAP1 PUSH2 0xF3C JUMP JUMPDEST SWAP1 SWAP2 SSTORE POP PUSH1 0x0 SWAP1 POP PUSH2 0x50F CALLER PUSH2 0x80E JUMP JUMPDEST PUSH2 0x51A JUMPI PUSH1 0x0 PUSH2 0x524 JUMP JUMPDEST PUSH2 0x524 CALLER DUP5 PUSH2 0x55C JUMP JUMPDEST SWAP1 POP PUSH2 0x54A DUP4 PUSH2 0x534 DUP5 DUP5 PUSH2 0xF3C JUMP JUMPDEST CALLER PUSH1 0x0 SWAP1 DUP2 MSTORE PUSH1 0x5 PUSH1 0x20 MSTORE PUSH1 0x40 SWAP1 KECCAK256 SWAP2 SWAP1 PUSH2 0xAF6 JUMP JUMPDEST POP PUSH2 0x556 PUSH1 0x6 CALLER PUSH2 0x9FA JUMP JUMPDEST POP POP POP POP JUMP JUMPDEST PUSH1 0x0 PUSH2 0x567 DUP4 PUSH2 0x80E JUMP JUMPDEST PUSH2 0x583 JUMPI PUSH1 0x40 MLOAD PUSH3 0x461BCD PUSH1 0xE5 SHL DUP2 MSTORE PUSH1 0x4 ADD PUSH2 0x32A SWAP1 PUSH2 0xF0E JUMP JUMPDEST PUSH1 0x1 PUSH1 0x1 PUSH1 0xA0 SHL SUB DUP4 AND PUSH1 0x0 SWAP1 DUP2 MSTORE PUSH1 0x5 PUSH1 0x20 MSTORE PUSH1 0x40 SWAP1 KECCAK256 PUSH2 0x5A5 SWAP1 DUP4 PUSH2 0xB0C JUMP JUMPDEST PUSH2 0x5B0 JUMPI PUSH1 0x0 PUSH2 0x5D2 JUMP JUMPDEST PUSH1 0x1 PUSH1 0x1 PUSH1 0xA0 SHL SUB DUP4 AND PUSH1 0x0 SWAP1 DUP2 MSTORE PUSH1 0x5 PUSH1 0x20 MSTORE PUSH1 0x40 SWAP1 KECCAK256 PUSH2 0x5D2 SWAP1 DUP4 PUSH2 0xB21 JUMP JUMPDEST SWAP4 SWAP3 POP POP POP JUMP JUMPDEST PUSH2 0x5E1 PUSH2 0xA0F JUMP JUMPDEST PUSH1 0x8 SLOAD PUSH1 0x1 PUSH1 0x1 PUSH1 0xA0 SHL SUB AND PUSH4 0x23B872DD CALLER DUP4 PUSH1 0xA PUSH2 0x5FF DUP3 PUSH2 0x303 JUMP JUMPDEST PUSH2 0x609 SWAP2 SWAP1 PUSH2 0xEEC JUMP JUMPDEST PUSH1 0x40 MLOAD PUSH1 0x1 PUSH1 0x1 PUSH1 0xE0 SHL SUB NOT PUSH1 0xE0 DUP7 SWAP1 SHL AND DUP2 MSTORE PUSH1 0x1 PUSH1 0x1 PUSH1 0xA0 SHL SUB SWAP4 DUP5 AND PUSH1 0x4 DUP3 ADD MSTORE SWAP3 SWAP1 SWAP2 AND PUSH1 0x24 DUP4 ADD MSTORE PUSH1 0x44 DUP3 ADD MSTORE PUSH1 0x64 ADD PUSH1 0x20 PUSH1 0x40 MLOAD DUP1 DUP4 SUB DUP2 PUSH1 0x0 DUP8 GAS CALL ISZERO DUP1 ISZERO PUSH2 0x65D JUMPI RETURNDATASIZE PUSH1 0x0 DUP1 RETURNDATACOPY RETURNDATASIZE PUSH1 0x0 REVERT JUMPDEST POP POP POP POP PUSH1 0x40 MLOAD RETURNDATASIZE PUSH1 0x1F NOT PUSH1 0x1F DUP3 ADD AND DUP3 ADD DUP1 PUSH1 0x40 MSTORE POP DUP2 ADD SWAP1 PUSH2 0x681 SWAP2 SWAP1 PUSH2 0xF54 JUMP JUMPDEST POP POP JUMP JUMPDEST PUSH1 0x0 DUP1 DUP1 JUMPDEST PUSH2 0x694 PUSH1 0x6 PUSH2 0xA69 JUMP JUMPDEST DUP2 LT ISZERO PUSH2 0x6F7 JUMPI PUSH1 0x1 PUSH1 0x1 PUSH1 0xA0 SHL SUB DUP5 AND PUSH1 0x0 SWAP1 DUP2 MSTORE PUSH1 0x4 PUSH1 0x20 MSTORE PUSH1 0x40 DUP2 KECCAK256 SWAP1 PUSH2 0x6BF PUSH1 0x6 DUP5 PUSH2 0xA73 JUMP JUMPDEST PUSH1 0x1 PUSH1 0x1 PUSH1 0xA0 SHL SUB AND DUP2 MSTORE PUSH1 0x20 DUP2 ADD SWAP2 SWAP1 SWAP2 MSTORE PUSH1 0x40 ADD PUSH1 0x0 KECCAK256 SLOAD PUSH2 0x6E3 SWAP1 DUP4 PUSH2 0xF3C JUMP JUMPDEST SWAP2 POP DUP1 PUSH2 0x6EF DUP2 PUSH2 0xEB4 JUMP JUMPDEST SWAP2 POP POP PUSH2 0x68A JUMP JUMPDEST POP SWAP3 SWAP2 POP POP JUMP JUMPDEST PUSH1 0x1 PUSH1 0x1 PUSH1 0xA0 SHL SUB DUP1 DUP3 AND PUSH1 0x0 SWAP1 DUP2 MSTORE PUSH1 0x3 PUSH1 0x20 MSTORE PUSH1 0x40 DUP1 DUP3 KECCAK256 SLOAD DUP2 MLOAD PUSH4 0x3FABE5A3 PUSH1 0xE2 SHL DUP2 MSTORE SWAP2 MLOAD SWAP3 SWAP4 AND SWAP2 DUP4 SWAP2 DUP4 SWAP2 PUSH4 0xFEAF968C SWAP2 PUSH1 0x4 DUP1 DUP3 ADD SWAP3 PUSH1 0xA0 SWAP3 SWAP1 SWAP2 SWAP1 DUP3 SWAP1 SUB ADD DUP2 DUP7 GAS STATICCALL ISZERO DUP1 ISZERO PUSH2 0x75A JUMPI RETURNDATASIZE PUSH1 0x0 DUP1 RETURNDATACOPY RETURNDATASIZE PUSH1 0x0 REVERT JUMPDEST POP POP POP POP PUSH1 0x40 MLOAD RETURNDATASIZE PUSH1 0x1F NOT PUSH1 0x1F DUP3 ADD AND DUP3 ADD DUP1 PUSH1 0x40 MSTORE POP DUP2 ADD SWAP1 PUSH2 0x77E SWAP2 SWAP1 PUSH2 0xF90 JUMP JUMPDEST POP POP POP SWAP2 POP POP DUP2 PUSH1 0x1 PUSH1 0x1 PUSH1 0xA0 SHL SUB AND PUSH4 0x313CE567 PUSH1 0x40 MLOAD DUP2 PUSH4 0xFFFFFFFF AND PUSH1 0xE0 SHL DUP2 MSTORE PUSH1 0x4 ADD PUSH1 0x20 PUSH1 0x40 MLOAD DUP1 DUP4 SUB DUP2 DUP7 GAS STATICCALL ISZERO DUP1 ISZERO PUSH2 0x7C2 JUMPI RETURNDATASIZE PUSH1 0x0 DUP1 RETURNDATACOPY RETURNDATASIZE PUSH1 0x0 REVERT JUMPDEST POP POP POP POP PUSH1 0x40 MLOAD RETURNDATASIZE PUSH1 0x1F NOT PUSH1 0x1F DUP3 ADD AND DUP3 ADD DUP1 PUSH1 0x40 MSTORE POP DUP2 ADD SWAP1 PUSH2 0x7E6 SWAP2 SWAP1 PUSH2 0xFE0 JUMP JUMPDEST PUSH2 0x7F1 SWAP1 PUSH1 0x12 PUSH2 0x1003 JUMP JUMPDEST PUSH2 0x7FC SWAP1 PUSH1 0xA PUSH2 0x110A JUMP JUMPDEST PUSH2 0x806 SWAP1 DUP3 PUSH2 0xECD JUMP JUMPDEST SWAP5 SWAP4 POP POP POP POP JUMP JUMPDEST PUSH1 0x0 PUSH2 0x2FD PUSH1 0x6 DUP4 PUSH2 0xB36 JUMP JUMPDEST PUSH2 0x824 CALLER PUSH2 0x80E JUMP JUMPDEST PUSH2 0x840 JUMPI PUSH1 0x40 MLOAD PUSH3 0x461BCD PUSH1 0xE5 SHL DUP2 MSTORE PUSH1 0x4 ADD PUSH2 0x32A SWAP1 PUSH2 0xF0E JUMP JUMPDEST PUSH1 0x0 PUSH2 0x84C CALLER DUP4 PUSH2 0x55C JUMP JUMPDEST SWAP1 POP PUSH1 0x0 DUP2 GT PUSH2 0x89E JUMPI PUSH1 0x40 MLOAD PUSH3 0x461BCD PUSH1 0xE5 SHL DUP2 MSTORE PUSH1 0x20 PUSH1 0x4 DUP3 ADD MSTORE PUSH1 0x1F PUSH1 0x24 DUP3 ADD MSTORE PUSH32 0x42616C616E6365206D7573742062652067726561746572207468616E20302E00 PUSH1 0x44 DUP3 ADD MSTORE PUSH1 0x64 ADD PUSH2 0x32A JUMP JUMPDEST PUSH1 0x40 MLOAD PUSH4 0xA9059CBB PUSH1 0xE0 SHL DUP2 MSTORE CALLER PUSH1 0x4 DUP3 ADD MSTORE PUSH1 0x24 DUP2 ADD DUP3 SWAP1 MSTORE PUSH1 0x1 PUSH1 0x1 PUSH1 0xA0 SHL SUB DUP4 AND SWAP1 PUSH4 0xA9059CBB SWAP1 PUSH1 0x44 ADD PUSH1 0x20 PUSH1 0x40 MLOAD DUP1 DUP4 SUB DUP2 PUSH1 0x0 DUP8 GAS CALL ISZERO DUP1 ISZERO PUSH2 0x8EB JUMPI RETURNDATASIZE PUSH1 0x0 DUP1 RETURNDATACOPY RETURNDATASIZE PUSH1 0x0 REVERT JUMPDEST POP POP POP POP PUSH1 0x40 MLOAD RETURNDATASIZE PUSH1 0x1F NOT PUSH1 0x1F DUP3 ADD AND DUP3 ADD DUP1 PUSH1 0x40 MSTORE POP DUP2 ADD SWAP1 PUSH2 0x90F SWAP2 SWAP1 PUSH2 0xF54 JUMP JUMPDEST POP PUSH1 0x1 PUSH1 0x1 PUSH1 0xA0 SHL SUB DUP3 AND PUSH1 0x0 SWAP1 DUP2 MSTORE PUSH1 0x4 PUSH1 0x20 SWAP1 DUP2 MSTORE PUSH1 0x40 DUP1 DUP4 KECCAK256 CALLER DUP5 MSTORE DUP3 MSTORE DUP1 DUP4 KECCAK256 DUP4 SWAP1 SSTORE PUSH1 0x5 SWAP1 SWAP2 MSTORE SWAP1 KECCAK256 PUSH2 0x947 SWAP1 DUP4 PUSH2 0xB58 JUMP JUMPDEST POP CALLER PUSH1 0x0 SWAP1 DUP2 MSTORE PUSH1 0x5 PUSH1 0x20 MSTORE PUSH1 0x40 SWAP1 KECCAK256 PUSH2 0x960 SWAP1 PUSH2 0xACF JUMP JUMPDEST PUSH1 0x0 SUB PUSH2 0x681 JUMPI PUSH2 0x972 PUSH1 0x6 CALLER PUSH2 0xB6D JUMP JUMPDEST POP POP POP JUMP JUMPDEST PUSH2 0x97F PUSH2 0xA0F JUMP JUMPDEST PUSH1 0x1 PUSH1 0x1 PUSH1 0xA0 SHL SUB DUP2 AND PUSH2 0x9E4 JUMPI PUSH1 0x40 MLOAD PUSH3 0x461BCD PUSH1 0xE5 SHL DUP2 MSTORE PUSH1 0x20 PUSH1 0x4 DUP3 ADD MSTORE PUSH1 0x26 PUSH1 0x24 DUP3 ADD MSTORE PUSH32 0x4F776E61626C653A206E6577206F776E657220697320746865207A65726F2061 PUSH1 0x44 DUP3 ADD MSTORE PUSH6 0x646472657373 PUSH1 0xD0 SHL PUSH1 0x64 DUP3 ADD MSTORE PUSH1 0x84 ADD PUSH2 0x32A JUMP JUMPDEST PUSH2 0x26A DUP2 PUSH2 0xA7F JUMP JUMPDEST PUSH1 0x0 PUSH2 0x2FD PUSH1 0x1 DUP4 PUSH2 0xB36 JUMP JUMPDEST PUSH1 0x0 PUSH2 0x5D2 DUP4 PUSH1 0x1 PUSH1 0x1 PUSH1 0xA0 SHL SUB DUP5 AND PUSH2 0xB82 JUMP JUMPDEST PUSH1 0x0 SLOAD PUSH1 0x1 PUSH1 0x1 PUSH1 0xA0 SHL SUB AND CALLER EQ PUSH2 0x2C1 JUMPI PUSH1 0x40 MLOAD PUSH3 0x461BCD PUSH1 0xE5 SHL DUP2 MSTORE PUSH1 0x20 PUSH1 0x4 DUP3 ADD DUP2 SWAP1 MSTORE PUSH1 0x24 DUP3 ADD MSTORE PUSH32 0x4F776E61626C653A2063616C6C6572206973206E6F7420746865206F776E6572 PUSH1 0x44 DUP3 ADD MSTORE PUSH1 0x64 ADD PUSH2 0x32A JUMP JUMPDEST PUSH1 0x0 PUSH2 0x2FD DUP3 SLOAD SWAP1 JUMP JUMPDEST PUSH1 0x0 PUSH2 0x5D2 DUP4 DUP4 PUSH2 0xBD1 JUMP JUMPDEST PUSH1 0x0 DUP1 SLOAD PUSH1 0x1 PUSH1 0x1 PUSH1 0xA0 SHL SUB DUP4 DUP2 AND PUSH1 0x1 PUSH1 0x1 PUSH1 0xA0 SHL SUB NOT DUP4 AND DUP2 OR DUP5 SSTORE PUSH1 0x40 MLOAD SWAP2 SWAP1 SWAP3 AND SWAP3 DUP4 SWAP2 PUSH32 0x8BE0079C531659141344CD1FD0A4F28419497F9722A3DAAFE3B4186F6B6457E0 SWAP2 SWAP1 LOG3 POP POP JUMP JUMPDEST PUSH1 0x0 PUSH2 0x2FD DUP3 PUSH2 0xBFB JUMP JUMPDEST PUSH1 0x0 DUP1 DUP1 DUP1 PUSH2 0xAE9 DUP7 DUP7 PUSH2 0xC06 JUMP JUMPDEST SWAP1 SWAP8 SWAP1 SWAP7 POP SWAP5 POP POP POP POP POP JUMP JUMPDEST PUSH1 0x0 PUSH2 0x806 DUP5 PUSH1 0x1 PUSH1 0x1 PUSH1 0xA0 SHL SUB DUP6 AND DUP5 PUSH2 0xC31 JUMP JUMPDEST PUSH1 0x0 PUSH2 0x5D2 DUP4 PUSH1 0x1 PUSH1 0x1 PUSH1 0xA0 SHL SUB DUP5 AND PUSH2 0xC4E JUMP JUMPDEST PUSH1 0x0 PUSH2 0x5D2 DUP4 PUSH1 0x1 PUSH1 0x1 PUSH1 0xA0 SHL SUB DUP5 AND PUSH2 0xC5A JUMP JUMPDEST PUSH1 0x1 PUSH1 0x1 PUSH1 0xA0 SHL SUB DUP2 AND PUSH1 0x0 SWAP1 DUP2 MSTORE PUSH1 0x1 DUP4 ADD PUSH1 0x20 MSTORE PUSH1 0x40 DUP2 KECCAK256 SLOAD ISZERO ISZERO PUSH2 0x5D2 JUMP JUMPDEST PUSH1 0x0 PUSH2 0x5D2 DUP4 PUSH1 0x1 PUSH1 0x1 PUSH1 0xA0 SHL SUB DUP5 AND PUSH2 0xCCA JUMP JUMPDEST PUSH1 0x0 PUSH2 0x5D2 DUP4 PUSH1 0x1 PUSH1 0x1 PUSH1 0xA0 SHL SUB DUP5 AND PUSH2 0xCE7 JUMP JUMPDEST PUSH1 0x0 DUP2 DUP2 MSTORE PUSH1 0x1 DUP4 ADD PUSH1 0x20 MSTORE PUSH1 0x40 DUP2 KECCAK256 SLOAD PUSH2 0xBC9 JUMPI POP DUP2 SLOAD PUSH1 0x1 DUP2 DUP2 ADD DUP5 SSTORE PUSH1 0x0 DUP5 DUP2 MSTORE PUSH1 0x20 DUP1 DUP3 KECCAK256 SWAP1 SWAP4 ADD DUP5 SWAP1 SSTORE DUP5 SLOAD DUP5 DUP3 MSTORE DUP3 DUP7 ADD SWAP1 SWAP4 MSTORE PUSH1 0x40 SWAP1 KECCAK256 SWAP2 SWAP1 SWAP2 SSTORE PUSH2 0x2FD JUMP JUMPDEST POP PUSH1 0x0 PUSH2 0x2FD JUMP JUMPDEST PUSH1 0x0 DUP3 PUSH1 0x0 ADD DUP3 DUP2 SLOAD DUP2 LT PUSH2 0xBE8 JUMPI PUSH2 0xBE8 PUSH2 0x1119 JUMP JUMPDEST SWAP1 PUSH1 0x0 MSTORE PUSH1 0x20 PUSH1 0x0 KECCAK256 ADD SLOAD SWAP1 POP SWAP3 SWAP2 POP POP JUMP JUMPDEST PUSH1 0x0 PUSH2 0x2FD DUP3 PUSH2 0xA69 JUMP JUMPDEST PUSH1 0x0 DUP1 DUP1 PUSH2 0xC14 DUP6 DUP6 PUSH2 0xA73 JUMP JUMPDEST PUSH1 0x0 DUP2 DUP2 MSTORE PUSH1 0x2 SWAP7 SWAP1 SWAP7 ADD PUSH1 0x20 MSTORE PUSH1 0x40 SWAP1 SWAP6 KECCAK256 SLOAD SWAP5 SWAP6 SWAP4 POP POP POP POP JUMP JUMPDEST PUSH1 0x0 DUP3 DUP2 MSTORE PUSH1 0x2 DUP5 ADD PUSH1 0x20 MSTORE PUSH1 0x40 DUP2 KECCAK256 DUP3 SWAP1 SSTORE PUSH2 0x806 DUP5 DUP5 PUSH2 0xDDA JUMP JUMPDEST PUSH1 0x0 PUSH2 0x5D2 DUP4 DUP4 PUSH2 0xDE6 JUMP JUMPDEST PUSH1 0x0 DUP2 DUP2 MSTORE PUSH1 0x2 DUP4 ADD PUSH1 0x20 MSTORE PUSH1 0x40 DUP2 KECCAK256 SLOAD DUP1 ISZERO ISZERO DUP1 PUSH2 0xC7E JUMPI POP PUSH2 0xC7E DUP5 DUP5 PUSH2 0xC4E JUMP JUMPDEST PUSH2 0x5D2 JUMPI PUSH1 0x40 MLOAD PUSH3 0x461BCD PUSH1 0xE5 SHL DUP2 MSTORE PUSH1 0x20 PUSH1 0x4 DUP3 ADD MSTORE PUSH1 0x1E PUSH1 0x24 DUP3 ADD MSTORE PUSH32 0x456E756D657261626C654D61703A206E6F6E6578697374656E74206B65790000 PUSH1 0x44 DUP3 ADD MSTORE PUSH1 0x64 ADD PUSH2 0x32A JUMP JUMPDEST PUSH1 0x0 DUP2 DUP2 MSTORE PUSH1 0x2 DUP4 ADD PUSH1 0x20 MSTORE PUSH1 0x40 DUP2 KECCAK256 DUP2 SWAP1 SSTORE PUSH2 0x5D2 DUP4 DUP4 PUSH2 0xDFE JUMP JUMPDEST PUSH1 0x0 DUP2 DUP2 MSTORE PUSH1 0x1 DUP4 ADD PUSH1 0x20 MSTORE PUSH1 0x40 DUP2 KECCAK256 SLOAD DUP1 ISZERO PUSH2 0xDD0 JUMPI PUSH1 0x0 PUSH2 0xD0B PUSH1 0x1 DUP4 PUSH2 0x112F JUMP JUMPDEST DUP6 SLOAD SWAP1 SWAP2 POP PUSH1 0x0 SWAP1 PUSH2 0xD1F SWAP1 PUSH1 0x1 SWAP1 PUSH2 0x112F JUMP JUMPDEST SWAP1 POP DUP2 DUP2 EQ PUSH2 0xD84 JUMPI PUSH1 0x0 DUP7 PUSH1 0x0 ADD DUP3 DUP2 SLOAD DUP2 LT PUSH2 0xD3F JUMPI PUSH2 0xD3F PUSH2 0x1119 JUMP JUMPDEST SWAP1 PUSH1 0x0 MSTORE PUSH1 0x20 PUSH1 0x0 KECCAK256 ADD SLOAD SWAP1 POP DUP1 DUP8 PUSH1 0x0 ADD DUP5 DUP2 SLOAD DUP2 LT PUSH2 0xD62 JUMPI PUSH2 0xD62 PUSH2 0x1119 JUMP JUMPDEST PUSH1 0x0 SWAP2 DUP3 MSTORE PUSH1 0x20 DUP1 DUP4 KECCAK256 SWAP1 SWAP2 ADD SWAP3 SWAP1 SWAP3 SSTORE SWAP2 DUP3 MSTORE PUSH1 0x1 DUP9 ADD SWAP1 MSTORE PUSH1 0x40 SWAP1 KECCAK256 DUP4 SWAP1 SSTORE JUMPDEST DUP6 SLOAD DUP7 SWAP1 DUP1 PUSH2 0xD95 JUMPI PUSH2 0xD95 PUSH2 0x1146 JUMP JUMPDEST PUSH1 0x1 SWAP1 SUB DUP2 DUP2 SWAP1 PUSH1 0x0 MSTORE PUSH1 0x20 PUSH1 0x0 KECCAK256 ADD PUSH1 0x0 SWAP1 SSTORE SWAP1 SSTORE DUP6 PUSH1 0x1 ADD PUSH1 0x0 DUP7 DUP2 MSTORE PUSH1 0x20 ADD SWAP1 DUP2 MSTORE PUSH1 0x20 ADD PUSH1 0x0 KECCAK256 PUSH1 0x0 SWAP1 SSTORE PUSH1 0x1 SWAP4 POP POP POP POP PUSH2 0x2FD JUMP JUMPDEST PUSH1 0x0 SWAP2 POP POP PUSH2 0x2FD JUMP JUMPDEST PUSH1 0x0 PUSH2 0x5D2 DUP4 DUP4 PUSH2 0xB82 JUMP JUMPDEST PUSH1 0x0 DUP2 DUP2 MSTORE PUSH1 0x1 DUP4 ADD PUSH1 0x20 MSTORE PUSH1 0x40 DUP2 KECCAK256 SLOAD ISZERO ISZERO PUSH2 0x5D2 JUMP JUMPDEST PUSH1 0x0 PUSH2 0x5D2 DUP4 DUP4 PUSH2 0xCE7 JUMP JUMPDEST DUP1 CALLDATALOAD PUSH1 0x1 PUSH1 0x1 PUSH1 0xA0 SHL SUB DUP2 AND DUP2 EQ PUSH2 0xE21 JUMPI PUSH1 0x0 DUP1 REVERT JUMPDEST SWAP2 SWAP1 POP JUMP JUMPDEST PUSH1 0x0 DUP1 PUSH1 0x40 DUP4 DUP6 SUB SLT ISZERO PUSH2 0xE39 JUMPI PUSH1 0x0 DUP1 REVERT JUMPDEST PUSH2 0xE42 DUP4 PUSH2 0xE0A JUMP JUMPDEST SWAP2 POP PUSH2 0xE50 PUSH1 0x20 DUP5 ADD PUSH2 0xE0A JUMP JUMPDEST SWAP1 POP SWAP3 POP SWAP3 SWAP1 POP JUMP JUMPDEST PUSH1 0x0 PUSH1 0x20 DUP3 DUP5 SUB SLT ISZERO PUSH2 0xE6B JUMPI PUSH1 0x0 DUP1 REVERT JUMPDEST PUSH2 0x5D2 DUP3 PUSH2 0xE0A JUMP JUMPDEST PUSH1 0x0 DUP1 PUSH1 0x40 DUP4 DUP6 SUB SLT ISZERO PUSH2 0xE87 JUMPI PUSH1 0x0 DUP1 REVERT JUMPDEST PUSH2 0xE90 DUP4 PUSH2 0xE0A JUMP JUMPDEST SWAP5 PUSH1 0x20 SWAP4 SWAP1 SWAP4 ADD CALLDATALOAD SWAP4 POP POP POP JUMP JUMPDEST PUSH4 0x4E487B71 PUSH1 0xE0 SHL PUSH1 0x0 MSTORE PUSH1 0x11 PUSH1 0x4 MSTORE PUSH1 0x24 PUSH1 0x0 REVERT JUMPDEST PUSH1 0x0 PUSH1 0x1 DUP3 ADD PUSH2 0xEC6 JUMPI PUSH2 0xEC6 PUSH2 0xE9E JUMP JUMPDEST POP PUSH1 0x1 ADD SWAP1 JUMP JUMPDEST PUSH1 0x0 DUP2 PUSH1 0x0 NOT DIV DUP4 GT DUP3 ISZERO ISZERO AND ISZERO PUSH2 0xEE7 JUMPI PUSH2 0xEE7 PUSH2 0xE9E JUMP JUMPDEST POP MUL SWAP1 JUMP JUMPDEST PUSH1 0x0 DUP3 PUSH2 0xF09 JUMPI PUSH4 0x4E487B71 PUSH1 0xE0 SHL PUSH1 0x0 MSTORE PUSH1 0x12 PUSH1 0x4 MSTORE PUSH1 0x24 PUSH1 0x0 REVERT JUMPDEST POP DIV SWAP1 JUMP JUMPDEST PUSH1 0x20 DUP1 DUP3 MSTORE PUSH1 0x14 SWAP1 DUP3 ADD MSTORE PUSH20 0x2AB735B737BBB71039BA30B5B2B437B63232B917 PUSH1 0x61 SHL PUSH1 0x40 DUP3 ADD MSTORE PUSH1 0x60 ADD SWAP1 JUMP JUMPDEST PUSH1 0x0 DUP3 NOT DUP3 GT ISZERO PUSH2 0xF4F JUMPI PUSH2 0xF4F PUSH2 0xE9E JUMP JUMPDEST POP ADD SWAP1 JUMP JUMPDEST PUSH1 0x0 PUSH1 0x20 DUP3 DUP5 SUB SLT ISZERO PUSH2 0xF66 JUMPI PUSH1 0x0 DUP1 REVERT JUMPDEST DUP2 MLOAD DUP1 ISZERO ISZERO DUP2 EQ PUSH2 0x5D2 JUMPI PUSH1 0x0 DUP1 REVERT JUMPDEST DUP1 MLOAD PUSH10 0xFFFFFFFFFFFFFFFFFFFF DUP2 AND DUP2 EQ PUSH2 0xE21 JUMPI PUSH1 0x0 DUP1 REVERT JUMPDEST PUSH1 0x0 DUP1 PUSH1 0x0 DUP1 PUSH1 0x0 PUSH1 0xA0 DUP7 DUP9 SUB SLT ISZERO PUSH2 0xFA8 JUMPI PUSH1 0x0 DUP1 REVERT JUMPDEST PUSH2 0xFB1 DUP7 PUSH2 0xF76 JUMP JUMPDEST SWAP5 POP PUSH1 0x20 DUP7 ADD MLOAD SWAP4 POP PUSH1 0x40 DUP7 ADD MLOAD SWAP3 POP PUSH1 0x60 DUP7 ADD MLOAD SWAP2 POP PUSH2 0xFD4 PUSH1 0x80 DUP8 ADD PUSH2 0xF76 JUMP JUMPDEST SWAP1 POP SWAP3 SWAP6 POP SWAP3 SWAP6 SWAP1 SWAP4 POP JUMP JUMPDEST PUSH1 0x0 PUSH1 0x20 DUP3 DUP5 SUB SLT ISZERO PUSH2 0xFF2 JUMPI PUSH1 0x0 DUP1 REVERT JUMPDEST DUP2 MLOAD PUSH1 0xFF DUP2 AND DUP2 EQ PUSH2 0x5D2 JUMPI PUSH1 0x0 DUP1 REVERT JUMPDEST PUSH1 0x0 PUSH1 0xFF DUP3 AND PUSH1 0xFF DUP5 AND DUP1 DUP3 LT ISZERO PUSH2 0x101D JUMPI PUSH2 0x101D PUSH2 0xE9E JUMP JUMPDEST SWAP1 SUB SWAP4 SWAP3 POP POP POP JUMP JUMPDEST PUSH1 0x1 DUP2 DUP2 JUMPDEST DUP1 DUP6 GT ISZERO PUSH2 0x1061 JUMPI DUP2 PUSH1 0x0 NOT DIV DUP3 GT ISZERO PUSH2 0x1047 JUMPI PUSH2 0x1047 PUSH2 0xE9E JUMP JUMPDEST DUP1 DUP6 AND ISZERO PUSH2 0x1054 JUMPI SWAP2 DUP2 MUL SWAP2 JUMPDEST SWAP4 DUP5 SHR SWAP4 SWAP1 DUP1 MUL SWAP1 PUSH2 0x102B JUMP JUMPDEST POP SWAP3 POP SWAP3 SWAP1 POP JUMP JUMPDEST PUSH1 0x0 DUP3 PUSH2 0x1078 JUMPI POP PUSH1 0x1 PUSH2 0x2FD JUMP JUMPDEST DUP2 PUSH2 0x1085 JUMPI POP PUSH1 0x0 PUSH2 0x2FD JUMP JUMPDEST DUP2 PUSH1 0x1 DUP2 EQ PUSH2 0x109B JUMPI PUSH1 0x2 DUP2 EQ PUSH2 0x10A5 JUMPI PUSH2 0x10C1 JUMP JUMPDEST PUSH1 0x1 SWAP2 POP POP PUSH2 0x2FD JUMP JUMPDEST PUSH1 0xFF DUP5 GT ISZERO PUSH2 0x10B6 JUMPI PUSH2 0x10B6 PUSH2 0xE9E JUMP JUMPDEST POP POP PUSH1 0x1 DUP3 SHL PUSH2 0x2FD JUMP JUMPDEST POP PUSH1 0x20 DUP4 LT PUSH2 0x133 DUP4 LT AND PUSH1 0x4E DUP5 LT PUSH1 0xB DUP5 LT AND OR ISZERO PUSH2 0x10E4 JUMPI POP DUP2 DUP2 EXP PUSH2 0x2FD JUMP JUMPDEST PUSH2 0x10EE DUP4 DUP4 PUSH2 0x1026 JUMP JUMPDEST DUP1 PUSH1 0x0 NOT DIV DUP3 GT ISZERO PUSH2 0x1102 JUMPI PUSH2 0x1102 PUSH2 0xE9E JUMP JUMPDEST MUL SWAP4 SWAP3 POP POP POP JUMP JUMPDEST PUSH1 0x0 PUSH2 0x5D2 PUSH1 0xFF DUP5 AND DUP4 PUSH2 0x1069 JUMP JUMPDEST PUSH4 0x4E487B71 PUSH1 0xE0 SHL PUSH1 0x0 MSTORE PUSH1 0x32 PUSH1 0x4 MSTORE PUSH1 0x24 PUSH1 0x0 REVERT JUMPDEST PUSH1 0x0 DUP3 DUP3 LT ISZERO PUSH2 0x1141 JUMPI PUSH2 0x1141 PUSH2 0xE9E JUMP JUMPDEST POP SUB SWAP1 JUMP JUMPDEST PUSH4 0x4E487B71 PUSH1 0xE0 SHL PUSH1 0x0 MSTORE PUSH1 0x31 PUSH1 0x4 MSTORE PUSH1 0x24 PUSH1 0x0 REVERT INVALID LOG2 PUSH5 0x6970667358 0x22 SLT KECCAK256 ADDRESS INVALID 0xC1 0x5C 0x4E 0xEA 0xDC 0xCA MUL GASLIMIT 0xB0 PUSH7 0x8FE67A0A9AF6A3 AND CALLVALUE 0xD7 CALL PUSH3 0x9C49A 0x4C 0x2E 0xD9 0x24 SUB PUSH5 0x736F6C6343 STOP ADDMOD 0xF STOP CALLER ","sha1":"ef40ad256efb58d268213f2d94e3d7c78d78b0df","source":"// SPDX-License-Identifier: MIT\n\npragma solidity ^0.8.0;\n\nimport \"@openzeppelin/contracts/access/Ownable.sol\";\nimport \"@openzeppelin/contracts/token/ERC20/IERC20.sol\";\nimport \"@openzeppelin/contracts/utils/structs/EnumerableSet.sol\";\nimport \"@openzeppelin/contracts/utils/structs/EnumerableMap.sol\";\nimport \"@chainlink/contracts/src/v0.8/interfaces/AggregatorV3Interface.sol\";\n\ncontract TokenFarm is Ownable {\n    using EnumerableSet for EnumerableSet.AddressSet;\n    using EnumerableMap for EnumerableMap.AddressToUintMap;\n\n    EnumerableSet.AddressSet internal allowedTokens;\n    mapping(address => address) internal tokenPriceFeeds;\n    mapping(address => mapping(address => uint256)) internal stakesByToken;\n    mapping(address => EnumerableMap.AddressToUintMap) internal stakesByHolder;\n    EnumerableSet.AddressSet internal stakeholders;\n    IERC20 internal dappToken;\n\n    constructor(address _dappTokenAddress, address _dappTokenPriceFeed) {\n        dappToken = IERC20(_dappTokenAddress);\n        addAllowedToken(_dappTokenAddress, _dappTokenPriceFeed);\n    }\n\n    function addAllowedToken(address _token, address _priceFeed)\n        public\n        onlyOwner\n    {\n        allowedTokens.add(_token);\n        tokenPriceFeeds[_token] = _priceFeed;\n    }\n\n    function isTokenAllowed(address _token) public view returns (bool) {\n        return allowedTokens.contains(_token);\n    }\n\n    function getTokenUnitValue(address _token) public view returns (uint256) {\n        AggregatorV3Interface _priceFeed = AggregatorV3Interface(\n            tokenPriceFeeds[_token]\n        );\n        (, int256 price, , , ) = _priceFeed.latestRoundData();\n        return uint256(price) * (10**(18 - _priceFeed.decimals()));\n    }\n\n    function stake(address _token, uint256 _amount) public {\n        require(_amount > 0, \"Amount must be greater than 0.\");\n        require(isTokenAllowed(_token), \"Token is not allowed.\");\n\n        IERC20(_token).transferFrom(msg.sender, address(this), _amount);\n\n        stakesByToken[_token][msg.sender] += _amount;\n\n        uint256 _tokenBalance = isStakeholder(msg.sender) ? getStakeholderTokenBalance(msg.sender, _token) : 0;\n        stakesByHolder[msg.sender].set(_token, _tokenBalance + _amount);\n        stakeholders.add(msg.sender);\n    }\n\n    function getTotalStakedToken(address _token) public view returns (uint256) {\n        uint256 result = 0;\n        for (uint256 i = 0; i < stakeholders.length(); i++) {\n            result += stakesByToken[_token][stakeholders.at(i)];\n        }\n        return result;\n    }\n\n    function isStakeholder(address _user) public view returns (bool) {\n        return stakeholders.contains(_user);\n    }\n\n    function unstake(address _token) public {\n        require(isStakeholder(msg.sender), \"Unknown stakeholder.\");\n\n        uint256 _tokenBalance = getStakeholderTokenBalance(msg.sender, _token);\n        require(_tokenBalance > 0, \"Balance must be greater than 0.\");\n\n        IERC20(_token).transfer(msg.sender, _tokenBalance);\n\n        stakesByToken[_token][msg.sender] = 0;\n        stakesByHolder[msg.sender].remove(_token);\n        if (stakesByHolder[msg.sender].length() == 0) {\n            stakeholders.remove(msg.sender);\n        }\n    }\n\n    function getStakeholderTokenBalance(address _holder, address _token)\n        public\n        view\n        returns (uint256)\n    {\n        require(isStakeholder(_holder), \"Unknown stakeholder.\");\n\n        return stakesByHolder[_holder].contains(_token) \n            ? stakesByHolder[_holder].get(_token) \n            : 0;\n    }\n\n    function getStakeholderTokenValue(address _stakeholder, address _token)\n        public\n        view\n        returns (uint256)\n    {\n        uint256 _tokenBalance = getStakeholderTokenBalance(_stakeholder, _token);\n        return (getTokenUnitValue(_token) * _tokenBalance) / (10**18);\n    }\n\n    function reward() public onlyOwner {\n        for (uint256 i = 0; i < stakeholders.length(); i++) {\n            rewardStakeholder(stakeholders.at(i));\n        }\n    }\n\n    function rewardStakeholder(address _stakeholder) public onlyOwner {\n        dappToken.transferFrom(msg.sender, _stakeholder, getStakeholderTotalValue(_stakeholder) / 10);\n    }\n\n    function getStakeholderTotalValue(address _holder)\n        public\n        view\n        returns (uint256)\n    {\n        require(isStakeholder(_holder), \"Unknown stakeholder.\");\n\n        uint256 balance = 0;\n        address _token;\n        for (uint256 i = 0; i < stakesByHolder[_holder].length(); i++) {\n            (_token, ) = stakesByHolder[_holder].at(i);\n            balance += getStakeholderTokenValue(_holder, _token);\n        }\n        return balance;\n    }\n}\n","sourcePath":"contracts/TokenFarm.sol","deployment":{"address":"0xf8809074d84DcB2fa40F194E93840369B28f80D6","chainid":"1337","blockHeight":3}}